:020000040800F2
:10000000000001209D0C0008A1090008A7090008B4
:10001000AD090008B3090008B90900080000000094
:10002000000000000000000000000000BF09000800
:10003000CD09000800000000DB090008E9090008FC
:10004000ED0C0008ED0C0008ED0C0008ED0C0008AC
:10005000ED0C0008ED0C0008ED0C0008ED0C00089C
:10006000ED0C0008ED0C0008ED0C0008ED0C00088C
:10007000ED0C0008ED0C0008ED0C0008ED0C00087C
:10008000ED0C0008ED0C0008ED0C0008000000006D
:10009000000000000000000000000000ED0C00085F
:1000A000ED0C0008F5090008ED0C0008ED0C000847
:1000B000090A0008ED0C0008ED0C0008ED0C000822
:1000C000ED0C0008ED0C0008ED0C0008ED0C00082C
:1000D000ED0C0008ED0C0008ED0C0008000000001D
:1000E000ED0C0008ED0C0008ED0C0008000000000D
:1000F000000000000000000000000000ED0C0008FF
:1001000000000000ED0C0008ED0C0008ED0C0008EC
:1001100000000000000000000000000000000000DF
:10012000ED0C0008ED0C0008ED0C0008ED0C0008CB
:10013000ED0C0008000000000000000000000000BE
:100140000000000000000000000000001D0A000880
:10015000ED0C0008ED0C0008ED0C0008ED0C00089B
:10016000ED0C0008ED0C000800000000000000008D
:10017000000000000000000000000000000000007F
:1001800000000000ED0C000800000000000000006E
:04019000ED0C00086A
:1001A00010B5054C237833B9044B13B10448AFF3B1
:1001B00000800123237010BDE40100200000000036
:1001C000D4F1000808B5034B1BB103490348AFF352
:1001D000008008BD00000000E8010020D4F1000804
:1001E00001F0FF01102A2BDB10F0070F08D010F8E8
:1001F000013B013A8B422DD010F0070F42B3F6D1EC
:10020000F0B441EA012141EA014122F007047FF004
:1002100000070023F0E80256083C85EA010586EA5B
:10022000010685FA47F5A3FA87F586FA47F6A5FA97
:1002300087F68EB9EED1F0BC01F0FF0102F00702A3
:1002400032B110F8013B013A83EA010313B1F8D14E
:100250000020704701387047002D06BF354603382F
:10026000073815F0010F07D1013015F4807F02BF68
:10027000013015F4C03F0130F0BC0138704700BFB9
:1002800053B94AB9002908BF00281CBF4FF0FF31FD
:100290004FF0FF3000F06EB9ADF1080C6DE904CEFF
:1002A00000F006F8DDF804E0DDE9022304B0704751
:1002B0002DE9F047089D04468C46002B40F08380D2
:1002C0008A42174647D9B2FA82F242B1C2F12000FF
:1002D00024FA00F09140974040EA010C94404FEA24
:1002E0001748230CBCFBF8F61FFA87FE08FB16C163
:1002F00043EA014306FB0EF1994209D9FB1806F1C6
:10030000FF3080F01981994240F21681023E3B4451
:100310005B1AA4B2B3FBF8F008FB103344EA0344C1
:1003200000FB0EFEA64509D93C1900F1FF3380F011
:100330000581A64540F2028102383C4440EA06406D
:10034000A4EB0E0400261DB1D4400023C5E90043F0
:100350003146BDE8F08702B9FFDEB2FA82F2002A28
:1003600050D1CB1B4FEA174E1FFA87F80126B3FB7B
:10037000FEFC210C0EFB1C3341EA034108FB0CF38D
:100380008B4207D979180CF1FF3002D28B4200F270
:10039000E9808446C91AA3B2B1FBFEF00EFB10112E
:1003A00043EA014408FB00F8A04507D93C1900F1D5
:1003B000FF3302D2A04500F2D9801846A4EB08040E
:1003C00040EA0C40BFE78B4209D9002D00F0B18014
:1003D0000026C5E9000130463146BDE8F087B3FA92
:1003E00083F6002E4AD18B4202D3824200F2B880BB
:1003F000841A61EB030101208C46002DA8D0C5E9C9
:10040000004CA5E7C2F1200320FA03F6974001FA59
:1004100002F04FEA174ED9403043030CB1FBFEF611
:100420001FFA87F80EFB161143EA014306FB08F199
:10043000994204FA02F409D9FB1806F1FF3C80F056
:100440008D80994240F28A80023E3B445B1A81B221
:10045000B3FBFEF00EFB103341EA034100FB08F34F
:100460008B4207D9791800F1FF3C73D28B4271D9C6
:1004700002383944CB1A40EA064678E7C6F1200C28
:1004800003FA06F422FA0CF31C4320FA0CF701FAE3
:1004900006F34FEA144E21FA0CF11F433B0CB1FB5B
:1004A000FEF91FFA84F80EFB191143EA014109FB1A
:1004B00008FA8A4502FA06F200FA06F308D961182A
:1004C00009F1FF3048D28A4546D9A9F102092144F1
:1004D000A1EB0A01BFB2B1FBFEF00EFB101147EA1F
:1004E000014700FB08F8B84507D9E71900F1FF31CB
:1004F0002ED2B8452CD90238274440EA0940A7EB50
:100500000807A0FB02894F45C64649461AD317D0B3
:100510005DB1B3EB0E0267EB010707FA0CFCF2408A
:100520004CEA0202F740C5E9002700263146BDE843
:10053000F0872E4628460BE70646E9E61846FDE614
:100540004345E5D2B8EB020E69EB04010138DFE761
:100550000846D2E760468DE78146B9E7664675E70B
:1005600030464AE7ACF1020C394413E702383C4408
:1005700024E700BF704700BF80B58AB000AF07F125
:10058000140300221A605A609A60DA601A6100232C
:100590003B61464B1B6B454A43F004031363434BDB
:1005A0001B6B03F004033B613B690023FB603F4B83
:1005B0001B6B3E4A43F0800313633C4B1B6B03F001
:1005C0008003FB60FB680023BB60384B1B6B374A22
:1005D00043F001031363354B1B6B03F00103BB6056
:1005E000BB6800237B60314B1B6B304A43F0020336
:1005F00013632E4B1B6B03F002037B607B680022AE
:100600004FF460412A4800F09FFE00221021294843
:1006100000F09AFE00224EF2FF31274800F094FECF
:1006200001224FF48061244800F08EFE4FF46043B5
:100630007B610123BB610123FB6100233B6207F166
:10064000140319461A4800F0FBFC10237B610123B8
:10065000BB610123FB6103233B6207F114031946CD
:10066000144800F0EDFC40F2FF737B610123BB6195
:100670000123FB6103233B6207F1140319460E4873
:1006800000F0DEFC4FF460437B610123BB6100237B
:10069000FB6100233B6207F114031946064800F092
:1006A000CFFC00BF2837BD4680BD00BF00380240E8
:1006B00000080240000002400004024080B500AF84
:1006C00000F016FB00F012F8FFF756FF00F07EF87E
:1006D0000BF07EFA05F098F800F0F6F900F046FA13
:1006E0000CF0DCF90CF02CFAFCE7000080B594B0BB
:1006F00000AF07F120033022002118460EF034F934
:1007000007F10C0300221A605A609A60DA601A61DD
:100710000023BB60284B1B6C274A43F080531364B3
:10072000254B1B6C03F08053BB60BB6800237B60D0
:10073000224B1B6823F44043204A43F400431360D8
:100740001E4B1B6803F440437B607B6801233B62C4
:100750004FF480337B620223BB634FF48003FB635F
:100760000F233B6490237B640423BB640523FB6459
:1007700007F12003184601F0B1FF0346002B01D01A
:1007800000F01EF80F23FB6002233B6100237B6116
:100790004FF48053BB610023FB6107F10C0301217F
:1007A000184602F013FA0346002B01D000F008F8B7
:1007B00000BF5037BD4680BD003802400070004089
:1007C00080B400AF72B600BFFEE7000080B500AF96
:1007D000174B184A1A60164B4FF482725A60144B2A
:1007E00000229A60124B0022DA60114B00221A613B
:1007F0000F4B00225A610E4B4FF400729A610C4B62
:100800003822DA610A4B00221A62094B00225A622E
:10081000074B00229A62064B0A22DA62044802F071
:100820007DFB0346002B01D0FFF7CAFF00BF80BD50
:10083000D01200200030014080B58AB000AF78604F
:1008400007F1140300221A605A609A60DA601A6194
:100850007B681B68194A93422BD100233B61184BDC
:100860005B6C174A43F480535364154B5B6C03F481
:1008700080533B613B690023FB60114B1B6B104AAB
:1008800043F0010313630E4B1B6B03F00103FB608A
:10089000FB68E0237B610223BB610023FB61032330
:1008A0003B6205237B6207F114031946054800F0FB
:1008B000C7FB00BF2837BD4680BD00BF00300140E8
:1008C000003802400000024080B483B000AF03460D
:1008D000FB71134B1B681A68114B1B6822F0400216
:1008E0001A600F4B1B6819680D4B1A684FF6C773D7
:1008F0000B4013600A4B1B681968FA79084B1B6898
:100900000A431A60064B1B681A68054B1B6842F0C5
:1009100040021A6000BF0C37BD465DF8047B70478B
:10092000D012002080B586B002AF0346FB7107F1FC
:100930000F02F91D642300930123044802F077FBA2
:10094000FB7B18461037BD4680BD00BFD01200208B
:1009500080B483B000AF00237B60104B5B6C0F4A08
:1009600043F4804353640D4B5B6C03F480437B6022
:100970007B6800233B60094B1B6C084A43F08053A3
:100980001364064B1B6C03F080533B603B6800BF55
:100990000C37BD465DF8047B704700BF003802404D
:1009A00080B400AFFEE780B400AFFEE780B400AFD4
:1009B000FEE780B400AFFEE780B400AFFEE780B48E
:1009C00000AF00BFBD465DF8047B704780B400AF48
:1009D00000BFBD465DF8047B704780B400AF00BF28
:1009E000BD465DF8047B704780B500AF00F0D2F9DA
:1009F00000BF80BD80B500AF024802F09BFF00BF82
:100A000080BD00BF2813002080B500AF024802F06F
:100A100091FF00BF80BD00BF7013002080B500AF04
:100A2000024800F0FAFD00BF80BD00BFF83800208A
:100A300080B586B000AF7860144A154BD31A7B613D
:100A40007B693B61134B1B68002B02D1114B124A8F
:100A50001A60104B1A687B6813443A699A4207D2AD
:100A60000DF058FF03460C221A604FF0FF3309E0E7
:100A7000084B1B68FB60074B1A687B681344054AE8
:100A80001360FB6818461837BD4680BD0000012082
:100A90000004000000020020804E002080B400AF5F
:100AA000084BD3F88830074A43F47003C2F8883003
:100AB000044B4FF000629A6000BFBD465DF8047BB6
:100AC000704700BF00ED00E080B586B000AF07F1D1
:100AD000100300221A605A603B4600221A605A60D6
:100AE0009A60DA60204B4FF080421A601E4B3B2226
:100AF0005A601D4B00229A601B4B42F21072DA6062
:100B0000194B00221A61184B00229A61164802F014
:100B1000ADFD0346002B01D0FFF752FE00233B61E1
:100B200000237B6107F1100319460F4803F0C4FA54
:100B30000346002B01D0FFF743FE00233B60012357
:100B40007B600023BB600323FB603B460022194609
:100B5000054802F0F7FF0346002B01D0FFF730FEF7
:100B600000BF1837BD4680BD7013002080B500AFB0
:100B70000D4B0E4A1A600C4B3B225A600A4B002266
:100B80009A60094B3222DA60074B00221A61064B49
:100B900000229A61044802F0B7FC0346002B01D002
:100BA000FFF70EFE00BF80BD281300200044014067
:100BB00080B58AB000AF786007F1140300221A6094
:100BC0005A609A60DA601A617B681B68B3F1804FE3
:100BD00033D100233B611B4B1B6C1A4A43F00103CA
:100BE0001364184B1B6C03F001033B613B6900234A
:100BF000FB60144B1B6B134A43F001031363114B4F
:100C00001B6B03F00103FB60FB6801237B61022384
:100C1000BB610123FB6103233B6201237B6207F17C
:100C200014031946084800F00BFA002201211C2089
:100C300000F0CFF91C2000F0E8F900BF2837BD46CE
:100C400080BD00BF003802400000024080B584B083
:100C500000AF78607B681B680E4A934215D1002371
:100C6000FB600D4B5B6C0C4A43F4003353640A4B3E
:100C70005B6C03F40033FB60FB6800220021192049
:100C800000F0A7F9192000F0C0F900BF1037BD46E9
:100C900080BD00BF0044014000380240DFF834D07E
:100CA000002103E00C4B5B58435004310B480C4BC4
:100CB00042189A42F6D30B4A02E0002342F8043B62
:100CC000094B9A42F9D3FFF7E9FE0DF029FEFFF731
:100CD000F5FC704700000120CC270108000000202F
:100CE000E4010020E40100207C4E0020FEE700002B
:100CF00080B500AF0E4B1B680D4A43F400731360C0
:100D00000B4B1B680A4A43F480631360084B1B6853
:100D1000074A43F480731360032000F04FF900206A
:100D200000F008F8FFF714FE0023184680BD00BF4E
:100D3000003C024080B582B000AF7860124B1A6868
:100D4000124B1B7819464FF47A73B3FBF1F3B2FBE5
:100D5000F3F3184600F067F90346002B01D0012396
:100D60000EE07B680F2B0AD8002279684FF0FF3025
:100D700000F02FF9064A7B681360002300E001238E
:100D800018460837BD4680BD00000020080000203E
:100D90000400002080B400AF064B1B781A46064BB7
:100DA0001B681344044A136000BFBD465DF8047B12
:100DB000704700BF08000020B813002080B400AFC7
:100DC000034B1B681846BD465DF8047B704700BFA7
:100DD000B813002080B584B000AF7860FFF7EEFF55
:100DE000B8607B68FB60FB68B3F1FF3F05D00A4B3E
:100DF0001B781A46FB681344FB6000BFFFF7DEFF59
:100E00000246BB68D31AFA689A42F7D800BF00BFFF
:100E10001037BD4680BD00BF0800002080B485B0FB
:100E200000AF78607B6803F00703FB600C4BDB6866
:100E3000BB60BA684FF6FF031340BB60FB681A0241
:100E4000BB68134343F0BF6343F40033BB60044A01
:100E5000BB68D36000BF1437BD465DF8047B7047A4
:100E600000ED00E080B400AF044BDB681B0A03F028
:100E700007031846BD465DF8047B704700ED00E0AF
:100E800080B483B000AF0346FB7197F90730002BA5
:100E90000BDBFB7903F01F02074997F907305B0969
:100EA000012000FA02F241F8232000BF0C37BD46B2
:100EB0005DF8047B704700BF00E100E080B483B0C0
:100EC00000AF03463960FB7197F90730002B0ADB4E
:100ED0003B68DAB20C4997F907301201D2B20B44E1
:100EE00083F800230AE03B68DAB20849FB7903F093
:100EF0000F03043B1201D2B20B441A7600BF0C3729
:100F0000BD465DF8047B704700E100E000ED00E0C5
:100F100080B489B000AFF860B9607A60FB6803F014
:100F20000703FB61FB69C3F10703042B28BF0423FC
:100F3000BB61FB690433062B02D9FB69033B00E06C
:100F400000237B614FF0FF32BB6902FA03F3DA43FF
:100F5000BB681A407B699A404FF0FF317B6901FA08
:100F600003F3D9437B680B40134318462437BD462F
:100F70005DF8047B7047000080B582B000AF7860F8
:100F80007B68013BB3F1807F01D301230FE00A4A64
:100F90007B68013B53600F214FF0FF30FFF78EFF5E
:100FA000054B00229A60044B07221A600023184662
:100FB0000837BD4680BD00BF10E000E080B582B0BC
:100FC00000AF78607868FFF729FF00BF0837BD469B
:100FD00080BD80B586B000AF0346B9607A60FB7310
:100FE00000237B61FFF73EFF78617A68B968786912
:100FF000FFF78EFF024697F90F3011461846FFF7AC
:101000005DFF00BF1837BD4680BD80B582B000AF20
:101010000346FB7197F907301846FFF731FF00BF11
:101020000837BD4680BD80B582B000AF7860786873
:10103000FFF7A2FF034618460837BD4680BD0000F3
:1010400080B489B000AF7860396000237B610023F1
:101050003B610023BB610023FB6159E10122FB6975
:1010600002FA03F37B613B681B687A6913403B61BA
:101070003A697B699A4240F048813B685B6803F0BB
:101080000303012B05D03B685B6803F00303022BCD
:1010900030D17B689B68BB61FB695B00032202FA6D
:1010A00003F3DB43BA691340BB613B68DA68FB6951
:1010B0005B0002FA03F3BA691343BB617B68BA6948
:1010C0009A607B685B68BB610122FB6902FA03F3EB
:1010D000DB43BA691340BB613B685B681B0903F0E3
:1010E0000102FB6902FA03F3BA691343BB617B682F
:1010F000BA695A603B685B6803F00303032B17D09F
:101100007B68DB68BB61FB695B00032202FA03F3C7
:10111000DB43BA691340BB613B689A68FB695B00BB
:1011200002FA03F3BA691343BB617B68BA69DA60F8
:101130003B685B6803F00303022B23D1FB69DA08E9
:101140007B68083253F82230BB61FB6903F0070368
:101150009B000F2202FA03F3DB43BA691340BB6121
:101160003B681A69FB6903F007039B0002FA03F36B
:10117000BA691343BB61FB69DA087B680832B96955
:1011800043F822107B681B68BB61FB695B0003228C
:1011900002FA03F3DB43BA691340BB613B685B6847
:1011A00003F00302FB695B0002FA03F3BA6913431D
:1011B000BB617B68BA691A603B685B6803F0805367
:1011C000002B00F0A2800023FB60574B5B6C564A5B
:1011D00043F480435364544B5B6C03F48043FB60E3
:1011E000FB68524AFB699B08023352F82330BB610B
:1011F000FB6903F003039B000F2202FA03F3DB43B6
:10120000BA691340BB617B68494A934219D07B6835
:10121000484A934213D07B68474A93420DD07B687B
:10122000464A934207D07B68454A934201D1042342
:1012300008E0072306E0032304E0022302E0012381
:1012400000E00023FA6902F0030292009340BA69B9
:101250001343BB613549FB699B080233BA6941F806
:101260002320384B1B68BB613B69DB43BA691340E1
:10127000BB613B685B6803F48033002B03D0BA6921
:101280003B691343BB612F4ABB6913602D4B5B68FD
:10129000BB613B69DB43BA691340BB613B685B6878
:1012A00003F40033002B03D0BA693B691343BB61DD
:1012B000244ABB695360234B9B68BB613B69DB439A
:1012C000BA691340BB613B685B6803F48013002B71
:1012D00003D0BA693B691343BB611A4ABB69936087
:1012E000184BDB68BB613B69DB43BA691340BB61E8
:1012F0003B685B6803F40013002B03D0BA693B69B9
:101300001343BB610F4ABB69D360FB690133FB61C7
:10131000FB690F2B7FF6A2AE00BF00BF2437BD468E
:101320005DF8047B704700BF003802400038014080
:10133000000002400004024000080240000C02408D
:1013400000100240003C014080B483B000AF7860E0
:101350000B467B8013467B707B78002B03D07A880A
:101360007B689A6103E07B881A047B689A6100BFFE
:101370000C37BD465DF8047B7047F0B58FB00AAFFF
:1013800078607B68002B01D101230FE17B681B682B
:10139000BB607B6893F8BD33DBB2002B06D17B6862
:1013A000002283F8BC2378680AF0C4FD7B6803221E
:1013B00083F8BD23BB68DB6B03F48073002B02D181
:1013C0007B6800221A617B681B68184603F00BF8E3
:1013D0007B681B683B607E686D4606F110040FCC8D
:1013E0000FC50FCC0FC594E8030085E80300331D3B
:1013F0000ECB386802F0E2FE0346002B05D07B6876
:10140000022283F8BD230123D0E07B681B68002102
:10141000184602F0F9FF0023FB734AE0FA7B796873
:101420001346DB009B1A9B000B443D3301221A70CC
:10143000FA7B79681346DB009B1A9B000B443C3314
:10144000FA7B1A70FA7BFB7B98B279681346DB0053
:101450009B1A9B000B44423302461A80FA7B796840
:101460001346DB009B1A9B000B443F3300221A708B
:10147000FA7B79681346DB009B1A9B000B444433CC
:1014800000221A60FA7B79681346DB009B1A9B00E6
:101490000B44483300221A60FA7B79681346DB005C
:1014A0009B1A9B000B44503300221A60FB7B0133D4
:1014B000FB73FA7B7B685B689A42AFD30023FB73B4
:1014C00044E0FA7B79681346DB009B1A9B000B44CF
:1014D00003F2FD1300221A70FA7B79681346DB00D1
:1014E0009B1A9B000B4403F5FE73FA7B1A70FA7B80
:1014F00079681346DB009B1A9B000B4403F2FF1331
:1015000000221A70FA7B79681346DB009B1A9B0055
:101510000B4403F5017300221A60FA7B79681346C5
:10152000DB009B1A9B000B4403F5027300221A6038
:10153000FA7B79681346DB009B1A9B000B4403F58A
:10154000047300221A60FB7B0133FB73FA7B7B6818
:101550005B689A42B5D37B681B683B607E686D46CA
:1015600006F110040FCC0FC50FCC0FC594E8030093
:1015700085E80300331D0ECB386802F06FFF034689
:10158000002B05D07B68022283F8BD2301230DE0E8
:101590007B68002283F838207B68012283F8BD2312
:1015A0007B681B68184603F0B7FF00231846143702
:1015B000BD46F0BD80B584B000AF78607B681B6825
:1015C000FB607B6893F8BC33012B01D1022320E040
:1015D0007B68012283F8BC237B689B6A012B09D1BD
:1015E0007B689B69012B05D0FB689B6B43F48032C1
:1015F000FB689A637B681B68184602F0E3FE7B6811
:101600001B68184603F067FF7B68002283F8BC2341
:10161000002318461037BD4680BD90B58DB000AF91
:1016200078607B681B683B623B6AFB617B681B6878
:10163000184604F025F80346002B40F09D837B6894
:101640001B68184603F089FF0346002B00F09383C4
:101650007B681B68184603F080FF034603F0020313
:10166000022B07D17B681B685A697B681B6802F0F4
:1016700002025A617B681B68184603F06EFF03463E
:1016800003F01003102B61D17B681B689A697B689B
:101690001B6822F010029A613B6A1B6ABB61BB693E
:1016A00003F00F021346DB009B1A9B0003F5FC734B
:1016B0007A68134404337B61BB695B0C03F00F034E
:1016C000022B24D1BA6947F6F0731340002B35D0B2
:1016D0007B69D968BB691B099BB2C3F30A039BB240
:1016E0001A46386A03F0D4FD7B69DA68BB691B09C6
:1016F000C3F30A031A447B69DA607B699A69BB69A0
:101700001B09C3F30A031A447B699A6116E0BB699B
:101710005B0C03F00F03062B10D17B6803F571738C
:1017200008221946386A03F0B3FD7B699A69BB69E0
:101730001B09C3F30A031A447B699A617B681B681F
:101740009A697B681B6842F010029A617B681B688B
:10175000184603F002FF034603F40023B3F5002FFD
:101760006ED100237B627B681B68184603F008FF7C
:10177000B86262E0BB6A03F00103002B57D07B68BC
:101780001B687A6AD2B21146184603F02DFF386101
:101790003B6903F00103002B0CD07B6A5A01FB6903
:1017A000134403F530631A4601239360796A78681D
:1017B00000F0DEFD3B6903F00803002B0CD07B6AD0
:1017C0005A01FB69134403F530631A4608239360FA
:1017D000796A786800F0D8FE3B6903F01003002BAB
:1017E00008D07B6A5A01FB69134403F530631A463B
:1017F000102393603B6903F02003002B08D07B6A21
:101800005A01FB69134403F530631A4620239360A1
:101810003B6903F40053002B09D07B6A5A01FB6932
:10182000134403F530631A464FF4005393607B6A08
:1018300001337B62BB6A5B08BB62BB6A002B99D138
:101840007B681B68184603F088FE034603F4802378
:10185000B3F5802F40F0C0807B681B68184603F00A
:10186000A9FEB86200237B62B2E0BB6A03F0010309
:10187000002B00F0A7807B681B687A6AD2B2114601
:10188000184603F0CFFE38613B6903F00103002BDB
:1018900057D07B6A03F00F03012202FA03F3FB60C7
:1018A000FB6903F500635A6BFB68DB43F96901F5DB
:1018B000006113404B637B6A5A01FB69134403F5D3
:1018C00010631A46012393607B681B69012B32D198
:1018D00079687A6A1346DB009B1A9B000B444833F5
:1018E000196878687A6A1346DB009B1A9B000344E8
:1018F00044331B68194478687A6A1346DB009B1AE4
:101900009B000344483319607B6A002B13D179682C
:101910007A6A1346DB009B1A9B000B4450331B680A
:10192000002B08D17B6818687B6803F571731A4631
:10193000012103F0D7FE7B6ADBB2194678680AF012
:101940007AFB3B6903F00803002B08D07B6A5A013D
:10195000FB69134403F510631A46082393603B693F
:1019600003F01003002B08D07B6A5A01FB69134473
:1019700003F510631A46102393603B6903F040039C
:10198000002B08D07B6A5A01FB69134403F51063EE
:101990001A46402393603B6903F00203002B08D0F2
:1019A0007B6A5A01FB69134403F510631A4602234C
:1019B00093603B6903F08003002B03D0796A786859
:1019C00000F048FC7B6A01337B62BB6A5B08BB6248
:1019D000BB6A002B7FF449AF7B681B68184603F095
:1019E000BCFD034603F00043B3F1004F22D1FB6975
:1019F00003F500635B68FA6902F5006223F00103F6
:101A000053607B6893F8F433012B08D17B68002284
:101A100083F8F4230021786800F054FE02E078682F
:101A20000AF076FB7B681B685A697B681B6802F0CA
:101A300000425A617B681B68184603F08EFD03461E
:101A400003F40063B3F5006F12D1FB6903F5006383
:101A50009B6803F00103012B02D178680AF032FB86
:101A60007B681B685A697B681B6802F400625A61D4
:101A70007B681B68184603F070FD034603F480532F
:101A8000B3F5805F40F0C780FB6903F500635B68D6
:101A9000FA6902F5006223F0010353607B681B685A
:101AA0001021184602F03EFE0023FB6256E0FB6A5E
:101AB0005A01FB69134403F510631A464FF67F334E
:101AC0009360FB6A5A01FB69134403F510631B68BA
:101AD000FA6A5101FA690A4402F5106223F400130C
:101AE0001360FB6A5A01FB69134403F510631B681A
:101AF000FA6A5101FA690A4402F5106243F0006380
:101B00001360FB6A5A01FB69134403F530631A46FC
:101B10004FF67F339360FB6A5A01FB69134403F568
:101B200030631B68FA6A5101FA690A4402F53062AF
:101B300023F400131360FB6A5A01FB69134403F595
:101B400030631B68FA6A5101FA690A4402F530628F
:101B500043F000631360FB6A0133FB627B685B68E0
:101B6000FA6A9A42A3D3FB6903F50063DB69FA6959
:101B700002F5006243F00113D3617B681B6B002BFD
:101B800016D0FB6903F50063D3F88430FA6902F5D7
:101B9000006243F00B03C2F88430FB6903F5006375
:101BA0005B6CFA6902F5006243F00B03536415E0C5
:101BB000FB6903F500635B69FA6902F5006243F4AF
:101BC000005343F02B035361FB6903F500631B696A
:101BD000FA6902F5006243F00B031361FB6903F538
:101BE00000631B68FA6902F5006223F4FE63136068
:101BF0007B6818687B681B69D9B27B6803F57173D1
:101C00001A4603F06FFD7B681B685A697B681B6886
:101C100002F480525A617B681B68184603F09DFCF1
:101C2000034603F40053B3F5005F24D17B681B68BF
:101C3000184603F033FD7B681B68184602F0D3FD9D
:101C400003461A467B68DA607B681C6801F05AF923
:101C500001467B68DB68DBB21A46204602F010FBC7
:101C600078680AF010FA7B681B685A697B681B6801
:101C700002F400525A617B681B68184603F06DFC41
:101C8000034603F00803082B0AD178680AF0EDF93F
:101C90007B681B685A697B681B6802F008025A61FE
:101CA0007B681B68184603F058FC034603F4801356
:101CB000B3F5801F0FD100237B627B6ADBB219462C
:101CC00078680AF045FA7B681B685A697B681B686C
:101CD00002F480125A617B681B68184603F03DFCD1
:101CE000034603F40013B3F5001F0FD100237B62FA
:101CF0007B6ADBB2194678680AF018FA7B681B68C1
:101D00005A697B681B6802F400125A617B681B6881
:101D1000184603F022FC034603F08043B3F1804FE2
:101D20000AD178680AF026FA7B681B685A697B68D2
:101D30001B6802F080425A617B681B68184603F0FA
:101D40000CFC034603F00403042B15D17B681B68CD
:101D50005B68BB61BB6903F00403002B02D07868A9
:101D60000AF016FA7B681B6859687B681B68BA69B9
:101D70000A435A6000E000BF3437BD4690BD80B5CD
:101D800082B000AF78600B46FB707B6893F8BC3381
:101D9000012B01D1022313E07B68012283F8BC23CD
:101DA0007B68FA7883F838207B681B68FA781146DC
:101DB000184603F06AFB7B68002283F8BC230023EB
:101DC00018460837BD4680BD80B584B000AF786046
:101DD000084611461A460346FB700B463B801346E5
:101DE000BB700023FB7297F90330002B0FDAFB78EE
:101DF00003F00F021346DB009B1A9B0038337A680E
:101E000013440433FB60FB6801225A700FE0FB7837
:101E100003F00F021346DB009B1A9B0003F5FC73D3
:101E20007A6813440433FB60FB6800225A70FB7825
:101E300003F00F03DAB2FB681A703A88FB689A6005
:101E4000FB68BA78DA70FB685B78002B04D0FB681B
:101E50001B789AB2FB68DA80BB78022B02D1FB6850
:101E600000221A717B6893F8BC33012B01D1022345
:101E70000EE07B68012283F8BC237B681B68F9684D
:101E8000184602F0D5FC7B68002283F8BC23FB7A5D
:101E900018461037BD4680BD80B584B000AF78606D
:101EA0000B46FB7097F90330002B0FDAFB7803F039
:101EB0000F021346DB009B1A9B0038337A681344E9
:101EC0000433FB60FB6801225A700FE0FB7803F0DB
:101ED0000F021346DB009B1A9B0003F5FC737A6824
:101EE00013440433FB60FB6800225A70FB7803F054
:101EF0000F03DAB2FB681A707B6893F8BC33012BCE
:101F000001D102230EE07B68012283F8BC237B68A9
:101F10001B68F968184602F013FD7B68002283F8FD
:101F2000BC23002318461037BD4680BD80B586B05F
:101F300000AFF8607A603B600B46FB72FB7A03F0FF
:101F40000F021346DB009B1A9B0003F5FC73FA6833
:101F5000134404337B617B697A68DA607B693A6891
:101F60005A617B6900229A617B6900225A70FB7A70
:101F700003F00F03DAB27B691A70FB681B69012B4F
:101F800002D17A687B691A61FB7A03F00F03002B98
:101F900009D1FB681868FB681B69DBB21A467969CE
:101FA00002F0EEFF08E0FB681868FB681B69DBB213
:101FB0001A46796902F0A0FD002318461837BD467D
:101FC00080BD80B483B000AF78600B46FB70FB78B7
:101FD00003F00F0279681346DB009B1A9B000B4449
:101FE00003F505731B6818460C37BD465DF8047B86
:101FF000704780B586B000AFF8607A603B600B46F2
:10200000FB72FB7A03F00F021346DB009B1A9B0066
:102010003833FA68134404337B617B697A68DA6089
:102020007B693A685A617B6900229A617B69012267
:102030005A70FB7A03F00F03DAB27B691A70FB68FF
:102040001B69012B02D17A687B691A61FB7A03F064
:102050000F03002B09D1FB681868FB681B69DBB212
:102060001A46796902F08CFF08E0FB681868FB6883
:102070001B69DBB21A46796902F03EFD002318465F
:102080001837BD4680BD80B584B000AF78600B4680
:10209000FB70FB7803F00F027B685B689A4201D902
:1020A000012350E097F90330002B0FDAFB7803F09F
:1020B0000F021346DB009B1A9B0038337A681344E7
:1020C0000433FB60FB6801225A700DE0FA78134676
:1020D000DB009B1A9B0003F5FC737A6813440433FE
:1020E000FB60FB6800225A70FB6801229A70FB7843
:1020F00003F00F03DAB2FB681A707B6893F8BC3305
:10210000012B01D102231EE07B68012283F8BC234E
:102110007B681B68F968184603F0E3F8FB7803F066
:102120000F03002B0AD17B6818687B681B69D9B242
:102130007B6803F571731A4603F0D4FA7B680022BA
:1021400083F8BC23002318461037BD4680BD80B5F8
:1021500084B000AF78600B46FB70FB7803F00F0291
:102160007B685B689A4201D9012342E097F903300A
:10217000002B0FDAFB7803F00F021346DB009B1AEB
:102180009B0038337A6813440433FB60FB680122F8
:102190005A700FE0FB7803F00F021346DB009B1A26
:1021A0009B0003F5FC737A6813440433FB60FB68FF
:1021B00000225A70FB6800229A70FB7803F00F032C
:1021C000DAB2FB681A707B6893F8BC33012B01D13B
:1021D00002230EE07B68012283F8BC237B681B6826
:1021E000F968184603F0EBF87B68002283F8BC23FB
:1021F000002318461037BD4680BD80B582B000AFC1
:1022000078600B46FB707B6893F8BC33012B01D1DF
:1022100002231BE07B68012283F8BC2397F903307B
:10222000002B09DA7B681A68FB7803F00F03194664
:10223000104602F077FA04E07B681B68184602F04B
:1022400097FA7B68002283F8BC23002318460837DE
:10225000BD4680BD80B58AB002AF786039607B68CA
:102260001B687B617B693B613A681346DB009B1A04
:102270009B0038337A6813440433FB60FB689A6927
:10228000FB685B699A4201D901236CE0FB685A69DB
:10229000FB689B69D31AFB61FB689B68FA699A42E9
:1022A00002D9FB689B68FB61FB6903339B08BB6138
:1022B0002BE0FB685A69FB689B69D31AFB61FB68DA
:1022C0009B68FA699A4202D9FB689B68FB61FB69CB
:1022D00003339B08BB61FB68D9683B68DAB2FB69D2
:1022E00098B27B681B69DBB200930346786902F001
:1022F0009AFFFB68DA68FB691A44FB68DA60FB68DE
:102300009A69FB691A44FB689A613B685A013B6908
:10231000134403F510639B699BB2BA699A4209D8CA
:10232000FB689A69FB685B699A4203D2FB685B6948
:10233000002BBED1FB685A69FB689B699A4211D891
:102340003B6803F00F03012202FA03F3BB603B6911
:1023500003F500635A6BBB68DB43396901F5006123
:1023600013404B63002318462037BD4680BD000054
:1023700080B586B000AF786039607B681B687B6190
:102380007B693B617B693C3304331B68FB603B68C2
:102390005A013B69134403F530639B68BB607B685B
:1023A0001B69012B40F0A080BB6803F00803002BE1
:1023B00015D0FB68724A934240F2DD80BB6803F49B
:1023C0000043002B00F0D7803B685A013B6913445F
:1023D00003F530631A464FF400439360CBE0BB68CB
:1023E00003F02003002B09D03B685A013B691344DA
:1023F00003F530631A4620239360BCE0BB6803F00A
:102400002803002B40F0B780FB685D4A93420FD948
:10241000BB6803F40043002B0AD03B685A013B69B8
:10242000134403F530631A464FF400439360A2E06F
:1024300079683A681346DB009B1A9B000B4403F54E
:1024400001731A683B6859013B690B4403F530631B
:102450001B69C3F31203D11A78683A681346DB008C
:102460009B1A9B00034403F50573196079683A6869
:102470001346DB009B1A9B000B4403F5027319689B
:1024800078683A681346DB009B1A9B00034403F507
:1024900001731B68194478683A681346DB009B1A7D
:1024A0009B00034403F5027319603B68002B14D1B1
:1024B00079683A681346DB009B1A9B000B4403F5CE
:1024C00004731B68002B08D17B6818687B6803F5D0
:1024D00071731A46012103F005F93B68DBB2194616
:1024E000786809F08DFD46E0FB68264A934224D1C6
:1024F000BB6803F40043002B0AD03B685A013B69D8
:10250000134403F530631A464FF40043936032E0FE
:10251000BB6803F02003002B08D03B685A013B69DD
:10252000134403F530631A46202393603B68DBB203
:102530001946786809F064FD1DE03B68002B14D152
:1025400079683A681346DB009B1A9B000B4403F53D
:1025500004731B68002B08D17B6818687B6803F53F
:1025600071731A46002103F0BDF83B68DBB21946CF
:10257000786809F045FD002318461837BD4680BD30
:102580000A30544F0A31544F80B586B000AF78609E
:1025900039607B681B687B617B693B617B693C338D
:1025A00004331B68FB603B685A013B69134403F525
:1025B00030639B68BB60FB68154A93420ED9BB68C9
:1025C00003F40043002B09D03B685A013B691344D4
:1025D00003F530631A464FF400439360786809F0BE
:1025E000FDFCFB680A4A93420CD97B681B69012BEE
:1025F00008D17B6818687B6803F571731A4601215E
:1026000003F070F8002318461837BD4680BD00BFA0
:102610000A30544F80B485B000AF78600B46FB7031
:1026200013463B807B681B685B6ABB60FB78002BB2
:1026300007D13B8819047B681B68BA680A439A6211
:1026400028E07B681B689B6A1B0CBA681344BB605C
:102650000023FB730DE07B681A68FB7B40339B0013
:1026600013445B681B0CBA681344BB60FB7B0133EB
:10267000FB73FA7BFB78013B9A42ECD33B8818044E
:102680007B681968FB78013BBA68024340339B00C2
:102690000B445A60002318461437BD465DF8047B8E
:1026A000704780B483B000AF78600B467B807B6856
:1026B0001B687A885A62002318460C37BD465DF8BD
:1026C000047B704780B483B000AF78600B46FB702A
:1026D00000BF0C37BD465DF8047B704780B586B0FF
:1026E00000AF78607B68002B01D1012364E27B6836
:1026F0001B6803F00103002B75D0A34B9B6803F00C
:102700000C03042B0CD0A04B9B6803F00C03082B8C
:1027100012D19D4B5B6803F48003B3F5800F0BD19E
:10272000994B1B6803F40033002B5BD07B685B681C
:10273000002B57D101233FE27B685B68B3F5803FF4
:1027400006D1914B1B68904A43F4803313601DE01F
:102750007B685B68B3F5A02F0CD18B4B1B688A4A52
:1027600043F480231360884B1B68874A43F480330B
:1027700013600BE0844B1B68834A23F4803313609F
:10278000814B1B68804A23F4802313607B685B685D
:10279000002B13D0FEF712FB386108E0FEF70EFBAA
:1027A00002463B69D31A642B01D9032304E2764B1A
:1027B0001B6803F40033002BF0D014E0FEF7FEFAA0
:1027C000386108E0FEF7FAFA02463B69D31A642B37
:1027D00001D90323F0E16C4B1B6803F40033002B99
:1027E000F0D100E000BF7B681B6803F00203002B00
:1027F00063D0654B9B6803F00C03002B0BD0624B3E
:102800009B6803F00C03082B1CD15F4B5B6803F43F
:102810008003002B16D15C4B1B6803F00203002BD6
:1028200005D07B68DB68012B01D00123C4E1564B46
:102830001B6823F0F8027B681B69DB0052491343D5
:102840000B603AE07B68DB68002B20D04F4B012205
:102850001A60FEF7B3FA386108E0FEF7AFFA0246F5
:102860003B69D31A022B01D90323A5E1464B1B6810
:1028700003F00203002BF0D0434B1B6823F0F80257
:102880007B681B69DB00404913430B6015E03F4B3D
:1028900000221A60FEF792FA386108E0FEF78EFA1D
:1028A00002463B69D31A022B01D9032384E1364B3C
:1028B0001B6803F00203002BF0D17B681B6803F058
:1028C0000803002B30D07B685B69002B16D0304B9F
:1028D00001221A60FEF772FA386108E0FEF76EFA1C
:1028E00002463B69D31A022B01D9032364E1264B2C
:1028F0005B6F03F00203002BF0D015E0244B0022A5
:102900001A60FEF75BFA386108E0FEF757FA0246F4
:102910003B69D31A022B01D903234DE11A4B5B6F9C
:1029200003F00203002BF0D17B681B6803F0040363
:10293000002B00F0A0800023FB75134B1B6C03F0F1
:102940008053002B0FD10023BB600F4B1B6C0E4A32
:1029500043F0805313640C4B1B6C03F08053BB603B
:10296000BB680123FB750B4B1B6803F48073002BC2
:1029700021D1084B1B68074A43F480731360FEF7AC
:102980001DFA386111E000BF0038024000004742E4
:10299000800E474200700040FEF710FA02463B6985
:1029A000D31A022B01D9032306E1854B1B6803F4DC
:1029B0008073002BF0D07B689B68012B06D1814B84
:1029C0001B6F804A43F0010313671CE07B689B6820
:1029D000052B0CD17B4B1B6F7A4A43F00403136722
:1029E000784B1B6F774A43F0010313670BE0754B7D
:1029F0001B6F744A23F001031367724B1B6F714AFC
:102A000023F0040313677B689B68002B15D0FEF747
:102A1000D5F938610AE0FEF7D1F902463B69D31ACD
:102A200041F28832934201D90323C5E0654B1B6F05
:102A300003F00203002BEED014E0FEF7BFF938617B
:102A40000AE0FEF7BBF902463B69D31A41F288322D
:102A5000934201D90323AFE05A4B1B6F03F00203EB
:102A6000002BEED1FB7D012B05D1564B1B6C554A3B
:102A700023F0805313647B689B69002B00F09B80DC
:102A8000504B9B6803F00C03082B5CD07B689B6960
:102A9000022B41D14C4B00221A60FEF78FF93861AE
:102AA00008E0FEF78BF902463B69D31A022B01D9E5
:102AB000032381E0434B1B6803F00073002BF0D12C
:102AC0007B68DA697B681B6A1A437B685B6A9B01D7
:102AD0001A437B689B6A5B08013B1B041A437B68B3
:102AE000DB6A1B06374913434B60374B01221A60E0
:102AF000FEF764F9386108E0FEF760F902463B69C9
:102B0000D31A022B01D9032356E02E4B1B6803F086
:102B10000073002BF0D04EE02B4B00221A60FEF722
:102B20004DF9386108E0FEF749F902463B69D31ACE
:102B3000022B01D903233FE0224B1B6803F00073F3
:102B4000002BF0D137E07B689B69012B01D1012379
:102B500032E01C4B5B68FB607B689B69012B28D0D3
:102B6000FB6803F480027B68DB699A4221D1FB6831
:102B700003F03F027B681B6A9A421AD1FA6847F653
:102B8000C07313407A68526A9201934211D1FB6874
:102B900003F440327B689B6A5B08013B1B049A424A
:102BA00007D1FB6803F070627B68DB6A1B069A4200
:102BB00001D0012300E0002318461837BD4680BD30
:102BC00000700040003802406000474280B584B089
:102BD00000AF786039607B68002B01D10123CCE025
:102BE000684B1B6803F007033A689A420CD9654B9F
:102BF0003A68D2B21A70634B1B6803F007033A6855
:102C00009A4201D00123B8E07B681B6803F00203FD
:102C1000002B20D07B681B6803F00403002B05D039
:102C2000594B9B68584A43F4E05393607B681B6898
:102C300003F00803002B05D0534B9B68524A43F422
:102C400060439360504B9B6823F0F0027B689B6865
:102C50004D4913438B607B681B6803F00103002B15
:102C600044D07B685B68012B07D1474B1B6803F49A
:102C70000033002B19D101237FE07B685B68022BB6
:102C800003D07B685B68032B07D13F4B1B6803F0C5
:102C90000073002B09D101236FE03B4B1B6803F04D
:102CA0000203002B01D1012367E0374B9B6823F01F
:102CB00003027B685B68344913438B60FEF77EF840
:102CC000F8600AE0FEF77AF80246FB68D31A41F290
:102CD0008832934201D903234FE02B4B9B6803F0CA
:102CE0000C027B685B689B009A42EBD1254B1B680A
:102CF00003F007033A689A420CD2224B3A68D2B2E8
:102D00001A70204B1B6803F007033A689A4201D0FF
:102D1000012332E07B681B6803F00403002B08D01A
:102D2000194B9B6823F4E0527B68DB681649134318
:102D30008B607B681B6803F00803002B09D0124BE3
:102D40009B6823F460427B681B69DB000E491343D8
:102D50008B6000F021F802460B4B9B681B0903F0C7
:102D60000F030A49CB5C22FA03F3094A1360094BAB
:102D70001B681846FDF7DEFF002318461037BD46D6
:102D800080BD00BF003C02400038024094F30008C0
:102D90000000002004000020B0B584B000AF002186
:102DA00079600021F960002139600021B960524941
:102DB000896801F00C0108290DD0082900F29480DF
:102DC000002902D0042903D08EE04C4BBB608EE07A
:102DD0004B4BBB608BE04849496801F03F0179608B
:102DE0004549496801F48001002924D042494968D5
:102DF000890908464FF0000140F2FF144FF000052A
:102E000000EA040201EA05033D4901FB03F0002149
:102E100001FB02F144183A49A2FB0101631819466B
:102E20007B681A464FF00003FDF72AFA02460B466C
:102E30001346FB604AE0304B5B689B091A464FF033
:102E4000000340F2FF104FF0000102EA000403EA21
:102E50000105204629464FF000024FF000034B01C8
:102E600043EAD063420110461946001B61EB05019D
:102E70004FF000024FF000038B0143EA90638201A0
:102E8000121A63EB01034FF000004FF00001D9006C
:102E900041EA5271D00002460B46121945EB03037A
:102EA0004FF000004FF00001990241EA9251900268
:102EB00002460B46104619467B681A464FF000033F
:102EC000FDF7DEF902460B461346FB600A4B5B68D2
:102ED0001B0C03F0030301335B003B60FA683B68A3
:102EE000B2FBF3F3BB6002E0044BBB6000BFBB6806
:102EF00018461037BD46B0BD003802400024F4002B
:102F000040787D0180B400AF034B1B681846BD4676
:102F10005DF8047B704700BF0000002080B582B0E0
:102F200000AF78607B68002B01D101237BE07B68D8
:102F30005B6A002B08D17B685B68B3F5827F09D0A0
:102F40007B680022DA6105E07B6800221A617B68F9
:102F500000225A617B6800229A627B6893F85130A4
:102F6000DBB2002B06D17B68002283F85020786802
:102F7000FDF762FC7B68022283F851207B681B68A6
:102F80001A687B681B6822F040021A607B685B68E5
:102F900003F482727B689B6803F404431A437B68E2
:102FA000DB6803F400631A437B681B6903F00203C8
:102FB0001A437B685B6903F001031A437B689B69D2
:102FC00003F400731A437B68DB6903F038031A4388
:102FD0007B681B6A03F0800342EA03017B689B6AFB
:102FE00003F400527B681B680A431A607B689B6984
:102FF0001B0C03F004017B685B6A03F010027B6822
:103000001B680A435A607B681B68DA697B681B6827
:1030100022F40062DA617B6800225A657B68012233
:1030200083F85120002318460837BD4680BD80B57F
:103030008CB000AFF860B9607A607B800123FB62DE
:10304000002387F82B30FB6893F85030012B01D117
:1030500002238AE1FB68012283F85020FDF7AEFECF
:103060007862FB6893F8513087F82330FB685B681F
:10307000FB617B887B8397F82330012B0FD0FB69A2
:10308000B3F5827F07D1FB689B68002B03D197F8CB
:103090002330042B03D0022387F82B305BE1BB687D
:1030A000002B05D07B68002B02D07B88002B03D13E
:1030B000012387F82B304EE1FB6893F85130DBB2E7
:1030C000042B03D0FB68052283F85120FB68002203
:1030D0005A65FB687A689A63FB687A88DA87FB68C6
:1030E0007A889A87FB68BA681A63FB687A88DA86F6
:1030F000FB687A889A86FB6800221A64FB680022C3
:103100005A64FB681B681B6803F04003402B07D020
:10311000FB681B681A68FB681B6842F040021A6073
:10312000FB68DB68B3F5006F78D1FB685B68002B48
:1031300002D07B8B012B66D1FB681B6B1A88FB6866
:103140001B68DA60FB681B6B9A1CFB681A63FB68E0
:10315000DB8E9BB2013B9AB2FB68DA8653E0FB68D8
:103160001B689B6803F00203022B1BD1FB68DB8EFC
:103170009BB2002B16D0FB6A012B13D1FB681B6B93
:103180001A88FB681B68DA60FB681B6B9A1CFB687B
:103190001A63FB68DB8E9BB2013B9AB2FB68DA864E
:1031A0000023FB62FB681B689B6803F00103012B93
:1031B00019D1FB68DB8F9BB2002B14D0FB681B6816
:1031C000DA68FB689B6B92B21A80FB689B6B9A1C57
:1031D000FB689A63FB68DB8F9BB2013B9AB2FB688A
:1031E000DA870123FB62FDF7E9FD02467B6AD31A09
:1031F000BA6B9A4207D8BB6BB3F1FF3F03D00323EE
:1032000087F82B30A7E0FB68DB8E9BB2002BA6D1A2
:10321000FB68DB8F9BB2002BA1D17CE0FB685B6875
:10322000002B02D07B8B012B6BD1FB681A6BFB68E8
:103230001B680C3312781A70FB681B6B5A1CFB68F6
:103240001A63FB68DB8E9BB2013B9AB2FB68DA869D
:1032500057E0FB681B689B6803F00203022B1CD13C
:10326000FB68DB8E9BB2002B17D0FB6A012B14D1BD
:10327000FB681A6BFB681B680C3312781A70FB68CA
:103280001B6B5A1CFB681A63FB68DB8E9BB2013B0D
:103290009AB2FB68DA860023FB62FB681B689B68B6
:1032A00003F00103012B19D1FB68DB8F9BB2002BCC
:1032B00014D0FB681B68DA68FB689B6BD2B21A708B
:1032C000FB689B6B5A1CFB689A63FB68DB8F9BB2A5
:1032D000013B9AB2FB68DA870123FB62FDF76EFDC2
:1032E00002467B6AD31ABA6B9A4203D8BB6BB3F11E
:1032F000FF3F02D1BB6B002B03D1032387F82B3098
:1033000029E0FB68DB8E9BB2002BA2D1FB68DB8F30
:103310009BB2002B9DD17A6AB96BF86800F0B2F8C5
:103320000346002B06D0012387F82B30FB682022B0
:103330005A6510E0FB689B68002B0BD100237B6172
:10334000FB681B68DB687B61FB681B689B687B61B3
:103350007B6900E000BFFB68012283F85120FB6815
:10336000002283F8502097F82B3018463037BD469E
:1033700080BD000080B588B000AFF860B9603B60E8
:103380001346FB71FDF71AFD0246BB6A9B1A3A68A9
:103390001344FB61FDF712FDB861394B1B685B01FB
:1033A0001B0DFA6902FB03F37B6154E03B68B3F148
:1033B000FF3F50D0FDF702FD0246BB69D31AFA6900
:1033C0009A4202D9FB69002B3DD1FB681B685A6801
:1033D000FB681B6822F0E0025A60FB685B68B3F58B
:1033E000827F11D1FB689B68B3F5004F04D0FB6866
:1033F0009B68B3F5806F07D1FB681B681A68FB6890
:103400001B6822F040021A60FB689B6AB3F5005FFC
:103410000FD1FB681B681A68FB681B6822F4005216
:103420001A60FB681B681A68FB681B6842F400524C
:103430001A60FB68012283F85120FB68002283F8A0
:103440005020032317E07B69002B01D10023FB618F
:103450007B69013B7B61FB681B689A68BB68134012
:10346000BA689A420CBF01230023DBB21A46FB79EB
:103470009A429BD1002318462037BD4680BD00BF2D
:103480000000002080B588B002AFF860B9607A60B3
:103490001B4B1B681B4AA2FB03235B0D4FF47A7284
:1034A00002FB03F37B61FB685B68B3F5827F12D19B
:1034B0007B680093BB6800228021F868FFF75AFF01
:1034C0000346002B16D0FB685B6D43F02002FB68BF
:1034D0005A6503230FE07B69002B0AD07B69013B0F
:1034E0007B61FB681B689B6803F08003802BF2D034
:1034F00000E000BF002318461837BD4680BD00BF5E
:1035000000000020819F5E1680B582B000AF786019
:103510007B68002B01D1012341E07B6893F83D30AB
:10352000DBB2002B06D17B68002283F83C20786850
:10353000FDF78CFB7B68022283F83D207B681A68CC
:103540007B6804331946104600F0F2FB7B680122C9
:1035500083F846207B68012283F83E207B680122A5
:1035600083F83F207B68012283F840207B6801229A
:1035700083F841207B68012283F842207B68012286
:1035800083F843207B68012283F844207B68012272
:1035900083F845207B68012283F83D2000231846EC
:1035A0000837BD4680BD000080B485B000AF7860AC
:1035B0007B6893F83D30DBB2012B01D0012344E05E
:1035C0007B68022283F83D207B681B68DA687B6891
:1035D0001B6842F00102DA607B681B681E4A934256
:1035E00018D07B681B68B3F1804F13D07B681B68D1
:1035F0001A4A93420ED07B681B68194A934209D03D
:103600007B681B68174A934204D07B681B68164A84
:10361000934211D17B681B689B6803F00703FB6032
:10362000FB68062B10D07B681B681A687B681B68D8
:1036300042F001021A6007E07B681B681A687B6829
:103640001B6842F001021A60002318461437BD4679
:103650005DF8047B704700BF00000140000400409B
:1036600000080040000C00400040014080B582B0DE
:1036700000AF78607B68002B01D1012341E07B68BB
:1036800093F83D30DBB2002B06D17B68002283F833
:103690003C207868FDF78CFA7B68022283F83D2095
:1036A0007B681A687B6804331946104600F040FBBB
:1036B0007B68012283F846207B68012283F83E2044
:1036C0007B68012283F83F207B68012283F8402039
:1036D0007B68012283F841207B68012283F8422025
:1036E0007B68012283F843207B68012283F8442011
:1036F0007B68012283F845207B68012283F83D2006
:10370000002318460837BD4680BD000080B584B050
:1037100000AF786039603B68002B04D17B6893F878
:103720003E30DBB213E03B68042B04D17B6893F896
:103730003F30DBB20BE03B68082B04D17B6893F889
:103740004030DBB203E07B6893F84130DBB2FB73BF
:103750003B68002B04D17B6893F84230DBB213E066
:103760003B68042B04D17B6893F84330DBB20BE059
:103770003B68082B04D17B6893F84430DBB203E04C
:103780007B6893F84530DBB2BB73FB7B012B02D126
:10379000BB7B012B01D00123BDE03B68002B04D192
:1037A0007B68022283F83E2013E03B68042B04D19F
:1037B0007B68022283F83F200BE03B68082B04D192
:1037C0007B68022283F8402003E07B68022283F8B2
:1037D00041203B68002B04D17B68022283F8422001
:1037E00013E03B68042B04D17B68022283F843205A
:1037F0000BE03B68082B04D17B68022283F844204D
:1038000003E07B68022283F845203B680C2B41D8FB
:1038100001A252F823F000BF4D3800089538000887
:1038200095380008953800085F380008953800087A
:103830009538000895380008713800089538000858
:103840009538000895380008833800087B681B68A5
:10385000DA687B681B6842F00202DA601BE07B6872
:103860001B68DA687B681B6842F00402DA6012E0C9
:103870007B681B68DA687B681B6842F00802DA60C4
:1038800009E07B681B68DA687B681B6842F01002FD
:10389000DA6000E000BF7B681B68012239681846C7
:1038A00000F0E4FB7B681B681D4A934218D07B68DC
:1038B0001B68B3F1804F13D07B681B68194A934291
:1038C0000ED07B681B68184A934209D07B681B683E
:1038D000164A934204D07B681B68154A934211D163
:1038E0007B681B689B6803F00703BB60BB68062B03
:1038F00010D07B681B681A687B681B6842F0010265
:103900001A6007E07B681B681A687B681B6842F0D6
:1039100001021A60002318461037BD4680BD00BF63
:10392000000001400004004000080040000C00407E
:103930000040014080B582B000AF78607B681B68B2
:103940001B6903F00203022B22D17B681B68DB6832
:1039500003F00203022B1BD17B681B686FF002028D
:103960001A617B6801221A777B681B689B6903F0E8
:103970000303002B03D078680AF05AFA05E0786850
:1039800000F0B8F9786800F0BFF97B6800221A7778
:103990007B681B681B6903F00403042B22D17B683E
:1039A0001B68DB6803F00403042B1BD17B681B68D6
:1039B0006FF004021A617B6802221A777B681B6829
:1039C0009B6903F44073002B03D078680AF030FA47
:1039D00005E0786800F08EF9786800F095F97B686A
:1039E00000221A777B681B681B6903F00803082B09
:1039F00022D17B681B68DB6803F00803082B1BD10E
:103A00007B681B686FF008021A617B6804221A77D2
:103A10007B681B68DB6903F00303002B03D0786825
:103A20000AF006FA05E0786800F064F9786800F0BA
:103A30006BF97B6800221A777B681B681B6903F0AF
:103A40001003102B22D17B681B68DB6803F0100386
:103A5000102B1BD17B681B686FF010021A617B680A
:103A600008221A777B681B68DB6903F44073002B1C
:103A700003D078680AF0DCF905E0786800F03AF9DC
:103A8000786800F041F97B6800221A777B681B6830
:103A90001B6903F00103012B0ED17B681B68DB68F7
:103AA00003F00103012B07D17B681B686FF0010253
:103AB0001A6178680AF0C2FC7B681B681B6903F016
:103AC0008003802B0ED17B681B68DB6803F08003CA
:103AD000802B07D17B681B686FF080021A617868C1
:103AE00000F062FB7B681B681B6903F04003402BFE
:103AF0000ED17B681B68DB6803F04003402B07D1C5
:103B00007B681B686FF040021A61786800F006F964
:103B10007B681B681B6903F02003202B0ED17B6898
:103B20001B68DB6803F02003202B07D17B681B6830
:103B30006FF020021A61786800F02CFB00BF083794
:103B4000BD4680BD80B584B000AFF860B9607A60D2
:103B5000FB6893F83C30012B01D1022382E0FB6823
:103B6000012283F83C207B68002B1BD1FB6818687E
:103B7000BB681968BB685A68BB68DB6800F058F915
:103B8000FB681B689A69FB681B6822F00C029A614B
:103B9000FB681B689969BB689A68FB681B680A43E5
:103BA0009A615AE07B68042B1CD1FB681868BB68DB
:103BB0001968BB685A68BB68DB6800F0A1F9FB684C
:103BC0001B689A69FB681B6822F440629A61FB6873
:103BD0001B689969BB689B681A02FB681B680A43EB
:103BE0009A613AE07B68082B1BD1FB681868BB68B8
:103BF0001968BB685A68BB68DB6800F0BEF9FB68EF
:103C00001B68DA69FB681B6822F00C02DA61FB684A
:103C10001B68D969BB689A68FB681B680A43DA614C
:103C20001BE0FB681868BB681968BB685A68BB680A
:103C3000DB6800F0DEF9FB681B68DA69FB681B686B
:103C400022F44062DA61FB681B68D969BB689B6833
:103C50001A02FB681B680A43DA61FB68002283F8DA
:103C60003C20002318461037BD4680BD80B485B087
:103C700000AF786039600023FB603B680C2B31D8C3
:103C800001A252F823F000BFBD3C0008E53C00084B
:103C9000E53C0008E53C0008C73C0008E53C00089E
:103CA000E53C0008E53C0008D13C0008E53C000884
:103CB000E53C0008E53C0008DB3C00087B681B682D
:103CC0005B6BFB600FE07B681B689B6BFB600AE033
:103CD0007B681B68DB6BFB6005E07B681B681B6C0B
:103CE000FB6000E000BFFB6818461437BD465DF876
:103CF000047B704780B483B000AF786000BF0C379E
:103D0000BD465DF8047B704780B483B000AF786037
:103D100000BF0C37BD465DF8047B704780B483B0AC
:103D200000AF786000BF0C37BD465DF8047B70477C
:103D300080B485B000AF786039607B681B68FB6039
:103D40007B68344A93420FD07B68B3F1804F0BD02D
:103D50007B68314A934207D07B68304A934203D054
:103D60007B682F4A934208D1FB6823F07003FB6005
:103D70003B685B68FA681343FB607B68254A9342A3
:103D80001BD07B68B3F1804F17D07B68224A9342E7
:103D900013D07B68214A93420FD07B68204A93421C
:103DA0000BD07B681F4A934207D07B681E4A934220
:103DB00003D07B681D4A934208D1FB6823F440730B
:103DC000FB603B68DB68FA681343FB60FB6823F029
:103DD00080023B685B691343FB607B68FA681A608A
:103DE0003B689A687B68DA623B681A687B689A620B
:103DF0007B68084A934203D13B681A697B681A635F
:103E00007B6801225A6100BF1437BD465DF8047B10
:103E1000704700BF0000014000040040000800405F
:103E2000000C0040004001400044014000480140B7
:103E300080B487B000AFF860B9607A603B60FB681F
:103E40001B6A23F00102FB681A62FB689B697B61B5
:103E5000FB681B6A3B61FB68244A934213D0FB68F2
:103E6000B3F1804F0FD0FB68214A93420BD0FB681F
:103E7000204A934207D0FB681F4A934203D0FB6855
:103E80001E4A934201D1012300E00023002B08D0F9
:103E90007B6923F003037B617A697B6813437B6151
:103EA00003E07B6943F001037B617B6923F0F0034E
:103EB0007B613B681B01DBB27A6913437B613B6921
:103EC00023F00A033B61BB6803F00A033A6913431A
:103ED0003B61FB687A699A61FB683A691A6200BFC4
:103EE0001C37BD465DF8047B704700BF00000140F1
:103EF0000004004000080040000C00400040014069
:103F000080B487B000AFF860B9607A603B60FB684E
:103F10001B6A23F01002FB681A62FB689B697B61D5
:103F2000FB681B6A3B617B6923F440737B617B68A0
:103F30001B027A6913437B617B6923F470437B61C5
:103F40003B681B039BB27A6913437B613B6923F097
:103F5000A0033B61BB681B0103F0A0033A69134354
:103F60003B61FB687A699A61FB683A691A6200BF33
:103F70001C37BD465DF8047B704780B487B000AF46
:103F8000F860B9607A603B60FB681B6A23F480725A
:103F9000FB681A62FB68DB697B61FB681B6A3B613B
:103FA0007B6923F003037B617A697B6813437B6140
:103FB0007B6923F0F0037B613B681B01DBB27A690C
:103FC00013437B613B6923F420633B61BB681B02A5
:103FD00003F420633A6913433B61FB687A69DA6151
:103FE000FB683A691A6200BF1C37BD465DF8047B66
:103FF000704780B487B000AFF860B9607A603B600A
:10400000FB681B6A23F48052FB681A62FB68DB6959
:104010007B61FB681B6A3B617B6923F440737B61B6
:104020007B681B027A6913437B617B6923F47043CD
:104030007B613B681B039BB27A6913437B613B69DD
:1040400023F420433B61BB681B0303F420433A691C
:1040500013433B61FB687A69DA61FB683A691A626B
:1040600000BF1C37BD465DF8047B704780B487B045
:1040700000AFF860B9607A60BB6803F01F030122EB
:1040800002FA03F37B61FB681A6A7B69DB431A401F
:10409000FB681A62FB681A6ABB6803F01F03796841
:1040A00001FA03F31A43FB681A6200BF1C37BD46CE
:1040B0005DF8047B7047000080B485B000AF786085
:1040C00039607B6893F83C30012B01D1022350E02A
:1040D0007B68012283F83C207B68022283F83D2024
:1040E0007B681B685B68FB607B681B689B68BB60C8
:1040F000FB6823F07003FB603B681B68FA6813439E
:10410000FB607B681B68FA685A607B681B681C4A06
:10411000934218D07B681B68B3F1804F13D07B6843
:104120001B68184A93420ED07B681B68164A93425C
:1041300009D07B681B68154A934204D07B681B68D2
:10414000134A93420CD1BB6823F08003BB603B68E9
:104150005B68BA681343BB607B681B68BA689A6087
:104160007B68012283F83D207B68002283F83C2095
:10417000002318461437BD465DF8047B704700BF26
:10418000000001400004004000080040000C004016
:104190000040014080B483B000AF786000BF0C37AE
:1041A000BD465DF8047B704780B483B000AF786093
:1041B00000BF0C37BD465DF8047B704784B080B506
:1041C00084B000AF786007F11C0080E80E003B6B04
:1041D000012B22D17B689B6B23F480327B689A632E
:1041E0007B68DB6823F4840323F040037A68D360A0
:1041F0007B68DB6823F440127B68DA60FB6C012B80
:1042000005D17B68DB6843F480127B68DA607868EC
:1042100001F0C6FA0346FB731AE07B68DB6843F0E3
:1042200040027B68DA60786801F0BAFA0346FB73F3
:104230003B6C002B06D17B689B6B43F480327B6820
:104240009A6305E07B689B6B23F480327B689A63FA
:10425000BB6A012B0BD17B689B6843F006027B682D
:104260009A607B689B6843F020027B689A60FB7BC6
:1042700018461037BD46BDE8804004B070470000C6
:1042800080B487B000AFF860B9601346FB71FB796A
:10429000022B65D1BB68414A934206D9BB68404AAC
:1042A000934202D20F237B6162E0BB683C4A934297
:1042B00006D3BB683B4A934202D20E237B6157E090
:1042C000BB68384A934206D3BB68374A934202D24E
:1042D0000D237B614CE0BB68334A934206D3BB6835
:1042E000324A934202D80C237B6141E0BB682F4ADB
:1042F000934206D9BB682E4A934202D80B237B61B6
:1043000036E0BB682A4A934206D9BB68294A9342E1
:1043100002D80A237B612BE0BB68264A934206D968
:10432000BB68254A934202D209237B6120E0BB6827
:10433000214A934206D3BB68204A934202D80823FD
:104340007B6115E0BB681D4A934206D9BB681C4AD5
:10435000934202D207237B610AE006237B6107E0D8
:10436000FB79002B02D109237B6101E009237B61EA
:10437000FB68DB6823F47052FB68DA60FB68DA687C
:104380007B699B0203F470531A43FB68DA600023D5
:1043900018461C37BD465DF8047B7047BFACD8009B
:1043A000C0E1E4000024F400807306019F491A0173
:1043B000FF2C31013FA44C0100366E011FABA6015A
:1043C0000048E80180B483B000AF78607B689B68E8
:1043D00043F001027B689A60002318460C37BD4603
:1043E0005DF8047B704780B483B000AF78607B6871
:1043F0009B6823F001027B689A60002318460C3703
:10440000BD465DF8047B704780B582B000AF786030
:104410000B46FB707B68DB6823F0C0427B68DA6088
:10442000FB78012B06D17B68DB6843F000527B6888
:10443000DA600BE0FB78002B06D17B68DB6843F089
:1044400080427B68DA6001E0012303E03220FCF760
:10445000C1FC002318460837BD4680BD84B080B536
:1044600086B000AF786007F1240080E80E000023DA
:10447000FB757B68FB6000233B6109E07A683B6960
:1044800040339B00134400225A603B6901333B6177
:104490003B690E2BF2D9FB6C002B1CD1FB6803F59A
:1044A00000635B68FA6802F5006243F00203536040
:1044B0007B689B6B43F400127B689A637B689B6B01
:1044C00023F400227B689A637B689B6B23F4802231
:1044D0007B689A630BE07B689B6B23F400127B681C
:1044E0009A637B689B6B43F400227B689A63FB684A
:1044F00003F560631A4600231360FB6803F500634D
:104500001946FB6803F500631A460B681360BB6B22
:10451000012B0CD1FB6A002B04D10021786800F03C
:1045200049F908E00121786800F044F903E003212B
:10453000786800F03FF91021786800F0F3F803463E
:10454000002B01D00123FB75786800F011F90346B8
:10455000002B01D00123FB75FB6803F500631A46AD
:1045600000231361FB6803F500631A4600235361BF
:10457000FB6803F500631A460023D36100233B6107
:1045800043E03B695A01FB68134403F510631B6861
:1045900003F00043B3F1004F18D13B69002B0AD15F
:1045A0003B695A01FB68134403F510631A464FF048
:1045B0000063136013E03B695A01FB68134403F581
:1045C00010631A464FF09043136008E03B695A01AC
:1045D000FB68134403F510631A46002313603B691C
:1045E0005A01FB68134403F510631A460023136154
:1045F0003B695A01FB68134403F510631A464FF6F2
:104600007F3393603B6901333B617B6A3A699A422D
:10461000B7D300233B6143E03B695A01FB68134475
:1046200003F530631B6803F00043B3F1004F18D16A
:104630003B69002B0AD13B695A01FB68134403F51F
:1046400030631A464FF00063136013E03B695A0170
:10465000FB68134403F530631A464FF09043136030
:1046600008E03B695A01FB68134403F530631A46BE
:10467000002313603B695A01FB68134403F5306360
:104680001A46002313613B695A01FB68134403F582
:1046900030631A464FF67F3393603B6901333B61C9
:1046A0007B6A3A699A42B7D3FB6803F500631B69DA
:1046B000FA6802F5006223F4807313617B680022BC
:1046C0009A617B686FF080425A613B6B002B05D189
:1046D0007B689B6943F010027B689A617B689A69EA
:1046E0000F4B13437A689361FB6B002B05D07B68FB
:1046F0009B6943F008027B689A61FB6C012B07D130
:104700007B689B6943F0804343F004037A689361BC
:10471000FB7D18461837BD46BDE8804004B07047A1
:1047200000383C8080B485B000AF786039600023E9
:10473000FB603B689B0143F020027B681A61FB68C9
:104740000133FB60FB68094A934201D9032306E069
:104750007B681B6903F02003202BF0D00023184650
:104760001437BD465DF8047B704700BF400D030061
:1047700080B485B000AF78600023FB607B681022B6
:104780001A61FB680133FB60FB68094A934201D957
:10479000032306E07B681B6903F01003102BF0D0A5
:1047A000002318461437BD465DF8047B704700BFF0
:1047B000400D030080B485B000AF78600B46FB70FD
:1047C0007B68FB60FB6803F500631A68FB78F96897
:1047D00001F5006113430B60002318461437BD46F2
:1047E0005DF8047B704780B487B000AF78607B6869
:1047F0003B613B6903F500639B6803F00603FB60C4
:10480000FB68002B02D10023FB750AE0FB68022B3A
:1048100002D0FB68062B02D10223FB7501E00F23B7
:10482000FB75FB7D18461C37BD465DF8047B704761
:1048300080B485B000AF786039607B68FB603B680E
:104840001B78BB603B685B78012B3AD1FB6803F5B2
:104850000063DA693B681B7803F00F03012101FA5A
:1048600003F39BB2F96801F500611343CB61BB68A8
:104870005A01FB68134403F510631B6803F40043FB
:10488000002B55D1BB685A01FB68134403F5106334
:104890001A683B689B68C3F30A013B68DB789B049A
:1048A0001943BB689B050B431343BA685101FA686F
:1048B0000A4402F5106243F0805343F4004313604E
:1048C00036E0FB6803F50063DA693B681B7803F0A8
:1048D0000F03012101FA03F31B04F96801F50061DC
:1048E0001343CB61BB685A01FB68134403F5306383
:1048F0001B6803F40043002B1AD1BB685A01FB6804
:10490000134403F530631A683B689B68C3F30A01DC
:104910003B68DB789B040B431343BA685101FA6888
:104920000A4402F5306243F0805343F400431360BD
:10493000002318461437BD465DF8047B704700001D
:1049400080B485B000AF786039607B68FB603B68FD
:104950001B78BB603B685B78012B61D1BB685A0157
:10496000FB68134403F510631B6803F00043B3F1C5
:10497000004F1FD1BB685A01FB68134403F5106355
:104980001B68BA685101FA680A4402F5106243F0E4
:1049900000631360BB685A01FB68134403F510639E
:1049A0001B68BA685101FA680A4402F5106243F0C4
:1049B00080431360FB6803F50063DA6B3B681B7888
:1049C00003F00F03012101FA03F39BB2DB43F96803
:1049D00001F500611340CB63FB6803F50063DA69FE
:1049E0003B681B7803F00F03012101FA03F39BB22C
:1049F000DB43F96801F500611340CB61BB685A01E4
:104A0000FB68134403F510631A68BB685901FB681F
:104A10000B4403F510631946354B13400B6060E0FF
:104A2000BB685A01FB68134403F530631B6803F04D
:104A30000043B3F1004F1FD1BB685A01FB68134418
:104A400003F530631B68BA685101FA680A4402F53D
:104A5000306243F000631360BB685A01FB68134483
:104A600003F530631B68BA685101FA680A4402F51D
:104A7000306243F080431360FB6803F50063DA6B38
:104A80003B681B7803F00F03012101FA03F31B04B9
:104A9000DB43F96801F500611340CB63FB6803F564
:104AA0000063DA693B681B7803F00F03012101FA08
:104AB00003F31B04DB43F96801F500611340CB618C
:104AC000BB685A01FB68134403F530631A68BB687E
:104AD0005901FB680B4403F530631946054B13403D
:104AE0000B60002318461437BD465DF8047B704701
:104AF000007833EC0078F3EF80B58AB002AFF8604D
:104B0000B9601346FB71FB68FB61BB681B78BB6136
:104B1000BB685B78012B40F05C81BB685B69002B54
:104B200032D1BB695A01FB69134403F510631B6959
:104B3000BA695101FA690A4402F5106223F0FF5381
:104B400023F4C0131361BB695A01FB69134403F5D5
:104B500010631B69BA695101FA690A4402F51062CF
:104B600043F400231361BB695A01FB69134403F545
:104B700010631B69BA695101FA690A4402F51062AF
:104B8000DB0CDB04136174E0BB695A01FB6913445D
:104B900003F510631B69BA695101FA690A4402F509
:104BA0001062DB0CDB041361BB695A01FB6913441F
:104BB00003F510631B69BA695101FA690A4402F5E9
:104BC000106223F0FF5323F4C0131361BB695A0131
:104BD000FB69134403F510631A69BB685969BB6824
:104BE0009B680B44591EBB689B68B1FBF3F3D90467
:104BF0009D4B0B40B9694801F969014401F5106109
:104C000013430B61BB695A01FB69134403F510633D
:104C10001A69BB685B69C3F31203B9694801F96992
:104C2000014401F5106113430B61BB68DB78012B74
:104C30001FD1BB695A01FB69134403F510631B695B
:104C4000BA695101FA690A4402F5106223F0C043BF
:104C50001361BB695A01FB69134403F510631B69B7
:104C6000BA695101FA690A4402F5106243F000532F
:104C70001361FB79012B4BD1BB681B69002B09D059
:104C8000BB695A01FB69134403F510631A46BB68FC
:104C90001B695361BB68DB78012B28D1FB6903F5E5
:104CA00000639B6803F48073002B10D1BB695A0129
:104CB000FB69134403F510631B68BA695101FA6973
:104CC0000A4402F5106243F0005313600FE0BB6921
:104CD0005A01FB69134403F510631B68BA6951015B
:104CE000FA690A4402F5106243F080531360BB690D
:104CF0005A01FB69134403F510631B68BA6951013B
:104D0000FA690A4402F5106243F0044313602FE18C
:104D1000BB695A01FB69134403F510631B68BA6948
:104D20005101FA690A4402F5106243F0044313602A
:104D3000BB68DB78012B15D0BB685B69002B00F0EA
:104D40001781FB6903F500635A6BBB681B7803F09E
:104D50000F03012101FA03F3F96901F5006113431F
:104D60004B6305E1FB6903F500639B6803F4807303
:104D7000002B10D1BB695A01FB69134403F5106382
:104D80001B68BA695101FA690A4402F5106243F0DE
:104D9000005313600FE0BB695A01FB69134403F52C
:104DA00010631B68BA695101FA690A4402F510627E
:104DB00043F080531360BB68D968BB681A78BB683E
:104DC0005B6998B2FB7900930346F86800F02BFA10
:104DD000CEE0BB695A01FB69134403F530631B69DC
:104DE000BA695101FA690A4402F53062DB0CDB044E
:104DF0001361BB695A01FB69134403F530631B69F6
:104E0000BA695101FA690A4402F5306223F0FF538E
:104E100023F4C0131361BB685B69002B26D1BB6907
:104E20005A01FB69134403F530631A69BB689B6838
:104E3000C3F31203B9694801F969014401F530610E
:104E400013430B61BB695A01FB69134403F53063DB
:104E50001B69BA695101FA690A4402F5306243F4E8
:104E60000023136136E000BF0000F81FBB685A69D9
:104E7000BB689B6813445A1EBB689B68B2FBF3F384
:104E8000FB82BB695A01FB69134403F530631A695D
:104E9000FB8AD904394B0B40B9694801F9690144CF
:104EA00001F5306113430B61BB695A01FB6913447F
:104EB00003F530631A69BB689B68F98A01FB03F349
:104EC000C3F31203B9694801F969014401F530617E
:104ED00013430B61FB79012B0DD1BB68DB68002B01
:104EE00009D0BB68D968BB695A01FB69134403F553
:104EF00030630A465A61BB68DB78012B28D1FB6915
:104F000003F500639B6803F48073002B10D1BB6929
:104F10005A01FB69134403F530631B68BA695101F8
:104F2000FA690A4402F5306243F0005313600FE05F
:104F3000BB695A01FB69134403F530631B68BA6906
:104F40005101FA690A4402F5306243F0805313605C
:104F5000BB695A01FB69134403F530631B68BA69E6
:104F60005101FA690A4402F5306243F004431360C8
:104F7000002318462037BD4680BD00BF0000F81F43
:104F800080B487B000AFF860B9601346FB71FB686E
:104F90007B61BB681B783B61BB685B78012B40F091
:104FA000CD80BB685B69002B32D13B695A017B69BC
:104FB000134403F510631B693A6951017A690A4485
:104FC00002F5106223F0FF5323F4C01313613B6911
:104FD0005A017B69134403F510631B693A69510157
:104FE0007A690A4402F5106243F4002313613B69B5
:104FF0005A017B69134403F510631B693A69510137
:105000007A690A4402F51062DB0CDB0413614EE09E
:105010003B695A017B69134403F510631B693A69C4
:1050200051017A690A4402F51062DB0CDB0413615A
:105030003B695A017B69134403F510631B693A69A4
:1050400051017A690A4402F5106223F0FF5323F4F8
:10505000C0131361BB685A69BB689B689A4203D945
:10506000BB689A68BB685A613B695A017B69134403
:1050700003F510631B693A6951017A690A4402F524
:10508000106243F4002313613B695A017B691344A6
:1050900003F510631A69BB685B69C3F312033969CE
:1050A00048017969014401F5106113430B61FB79F3
:1050B000012B1ED1BB681B69002B09D03B695A012B
:1050C0007B69134403F510631A46BB681B6953617F
:1050D0003B695A017B69134403F510631B683A6905
:1050E00051017A690A4402F5106243F004431360E7
:1050F00092E03B695A017B69134403F510631B6816
:105100003A6951017A690A4402F5106243F0044396
:105110001360BB685B69002B7ED07B6903F500637D
:105120005A6BBB681B7803F00F03012101FA03F3EC
:10513000796901F5006113434B636DE03B695A01E6
:105140007B69134403F530631B693A6951017A693D
:105150000A4402F53062DB0CDB0413613B695A013F
:105160007B69134403F530631B693A6951017A691D
:105170000A4402F5306223F0FF5323F4C013136195
:10518000BB685B69002B03D0BB689A68BB685A6137
:105190003B695A017B69134403F530631B693A6923
:1051A00051017A690A4402F5306243F40023136125
:1051B0003B695A017B69134403F530631A69BB6884
:1051C0009B68C3F31203396948017969014401F509
:1051D000306113430B61FB79012B0DD1BB68DB6898
:1051E000002B09D0BB68D9683B695A017B6913441D
:1051F00003F530630A465A613B695A017B691344DF
:1052000003F530631B683A6951017A690A4402F573
:10521000306243F004431360002318461C37BD4638
:105220005DF8047B704780B489B000AFF860B96066
:1052300011461A460B46FB711346BB80FB687B6127
:10524000BB68FB6197F82830002B1AD1BB88033369
:105250009B083B610023BB610FE0FB791A037B696C
:10526000134403F580531A46FB691B681360FB69FE
:105270000433FB61BB690133BB61BA693B699A4284
:10528000EBD3002318462437BD465DF8047B7047F6
:1052900080B489B000AFF860B9601346FB80FB684A
:1052A0007B61BB68FB61FB8803339B083B61002388
:1052B000BB610BE07B6903F580531A68FB691A60D8
:1052C000FB690433FB61BB690133BB61BA693B69AC
:1052D0009A42EFD3FB6918462437BD465DF8047B3C
:1052E000704780B485B000AF786039607B68FB6040
:1052F0003B681B78BB603B685B78012B2CD1BB689B
:105300005A01FB68134403F510631B68002B12DB82
:10531000BB68002B0FD0BB685A01FB68134403F530
:1053200010631B68BA685101FA680A4402F51062FA
:1053300023F080431360BB685A01FB68134403F5F4
:1053400010631B68BA685101FA680A4402F51062DA
:1053500043F4001313602BE0BB685A01FB6813444D
:1053600003F530631B68002B12DBBB68002B0FD0EA
:10537000BB685A01FB68134403F530631B68BA68C5
:105380005101FA680A4402F5306223F08043136049
:10539000BB685A01FB68134403F530631B68BA68A5
:1053A0005101FA680A4402F5306243F400131360B5
:1053B000002318461437BD465DF8047B704780B45F
:1053C00085B000AF786039607B68FB603B681B7814
:1053D000BB603B685B78012B28D1BB685A01FB6836
:1053E000134403F510631B68BA685101FA680A4454
:1053F00002F5106223F4001313603B68DB78032B83
:1054000003D03B68DB78022B38D1BB685A01FB68BC
:10541000134403F510631B68BA685101FA680A4423
:1054200002F5106243F08053136027E0BB685A0115
:10543000FB68134403F530631B68BA685101FA68CE
:105440000A4402F5306223F4001313603B68DB78F2
:10545000032B03D03B68DB78022B0FD1BB685A01CA
:10546000FB68134403F530631B68BA685101FA689E
:105470000A4402F5306243F080531360002318465B
:105480001437BD465DF8047B704780B485B000AF2B
:1054900078600B46FB707B68FB60FB6803F500637C
:1054A0001B68FA6802F5006223F4FE631360FB6870
:1054B00003F500631A68FB781B0103F4FE63F968C7
:1054C00001F5006113430B60002318461437BD46F5
:1054D0005DF8047B704780B485B000AF78607B686E
:1054E000FB60FB6803F560631B68FA6802F56062A5
:1054F00023F003031360FB6803F500635B68FA683D
:1055000002F5006223F002035360002318461437AB
:10551000BD465DF8047B704780B485B000AF78600D
:105520007B68FB60FB6803F560631B68FA6802F543
:10553000606223F003031360FB6803F500635B689C
:10554000FA6802F5006243F0020353600023184634
:105550001437BD465DF8047B704780B485B000AF5A
:1055600078607B685B69FB607B689B69FA681340C5
:10557000FB60FB6818461437BD465DF8047B704736
:1055800080B485B000AF78607B68FB60FB6803F592
:1055900000639B69BB60FB6803F50063DB69BA6865
:1055A0001340BB60BB681B0C18461437BD465DF842
:1055B000047B704780B485B000AF78607B68FB6087
:1055C000FB6803F500639B69BB60FB6803F5006340
:1055D000DB69BA681340BB60BB689BB218461437DE
:1055E000BD465DF8047B704780B485B000AF78603D
:1055F0000B46FB707B68FB60FB785A01FB68134429
:1056000003F530639B68BB60FB6803F500635B696F
:10561000BA681340BB60BB6818461437BD465DF8D6
:10562000047B704780B487B000AF78600B46FB7096
:105630007B687B617B6903F500631B693B617B6968
:1056400003F500635B6BFB60FB7803F00F03FA6804
:1056500022FA03F3DB01DBB23A6913433B61FB78C7
:105660005A017B69134403F510639B683A69134040
:10567000BB60BB6818461C37BD465DF8047B7047AD
:1056800080B483B000AF78607B685B6903F001038E
:1056900018460C37BD465DF8047B704780B485B072
:1056A00000AF78607B68FB60FB6803F510631B68E4
:1056B000FA6802F5106223F4FF6323F00703136016
:1056C000FB6803F500635B68FA6802F5006243F467
:1056D00080735360002318461437BD465DF8047B81
:1056E0007047000080B487B000AFF8600B467A6066
:1056F000FB72FB687B61FB683C3304331B683B61D6
:105700003B69264A93420AD97B6903F530631B68DB
:1057100003F00043B3F1004F01D1002337E07B6970
:1057200003F530631A46002313617B6903F5306388
:105730001B697A6902F5306243F4002313617B69C7
:1057400003F530631B697A6902F5306243F0180390
:1057500013617B6903F530631B697A6902F5306276
:1057600043F0C0431361FB7A012B0FD17B6903F532
:1057700030631A467B6853617B6903F530631B68AD
:105780007A6902F5306243F08023136000231846E3
:105790001C37BD465DF8047B704700BF0A30544F8C
:1057A00080B485B000AF78600023FB60FB680133F4
:1057B000FB60FB68134A934201D903231BE07B681B
:1057C0001B69002BF2DA0023FB607B681B6943F046
:1057D00001027B681A61FB680133FB60FB68094AC0
:1057E000934201D9032306E07B681B6903F00103A0
:1057F000012BF0D0002318461437BD465DF8047B1A
:10580000704700BF400D030080B500AF0449054854
:1058100006F008F903461A46034B1A7000BF80BD14
:10582000BC1300200C000020C013002080B400AF87
:1058300000231846BD465DF8047B704780B582B0F2
:1058400000AF0346FB7108F013FE0023184608372B
:10585000BD4680BD80B483B000AF0346FB7100231A
:1058600018460C37BD465DF8047B704780B584B0A0
:1058700000AFB9607A603B600346FB733B68002B66
:1058800013D1042315E07B681B034FF480521946A3
:10589000B86808F09FFE7B6801337B60BB6803F546
:1058A0008053BB603B68013B3B603B68002BEAD107
:1058B000002318461037BD4680BD80B584B000AFC8
:1058C000B9607A603B600346FB733B68002B13D1E1
:1058D000042315E07B681B034FF480521946B86817
:1058E00008F044FF7B6801337B60BB6803F580539D
:1058F000BB603B68013B3B603B68002BEAD1002367
:1059000018461037BD4680BD80B485B000AF034651
:105910003A60FB710B46BB710123FB73BB79032B10
:1059200022D801A252F823F0395900085959000829
:105930003F5900084D5900080023FB7317E03B68EE
:105940004FF480521A800023FB7310E03B6808225A
:105950001A800023FB730AE0084B1B881A463B6839
:105960001A600023FB7302E00423FB7300BFFB7B80
:1059700018461437BD465DF8047B70470A000020C6
:1059800080B584B000AF78600B46FB7041F27400C4
:1059900006F0B6FDF860FB68002B05D17B6800229D
:1059A000C3F8BC22022334E07B68FA68C3F8BC2247
:1059B0007B681B7C002B15D14FF400730222012160
:1059C000786806F05AFC7B680122A3F878214FF42E
:1059D000007302228121786806F04FFC7B68012267
:1059E0001A8712E0402302220121786806F045FC64
:1059F0007B680122A3F87821402302228121786864
:105A000006F03BFC7B6801221A87786800F099F960
:105A1000002318461037BD4680BD80B582B000AF68
:105A200078600B46FB700121786806F04CFC7B68BF
:105A30000022A3F878218121786806F044FC7B6875
:105A400000221A877B68D3F8BC32002B0CD0786810
:105A500000F0DCF97B68D3F8BC32184606F05EFD36
:105A60007B680022C3F8BC22002318460837BD46D5
:105A700080BD000080B586B000AF786039607B687B
:105A8000D3F8BC323B610023FB750023FB813B69EB
:105A9000002B01D10323DBE03B681B7803F060039C
:105AA000002B4ED0202B40F0CB803B685B78FE2B48
:105AB00002D0FF2B25D03CE03B685B88002B19D13E
:105AC0003B68DB88012B15D13B681B785BB2002B50
:105AD00010DA7B68D3F8C0329B69984703461A46B0
